:03000000020AC42D
:0C0AC400787FE4F6D8FD758159020B0B19
:060F9300E4F595D20722EF
:03008B00020EF66C
:100EF600C0E0C0F0C083C082C0D075D008538FEF69
:100F0600D207120E91D0D0D082D083D0F0D0E0326A
:0A0F890075869C758F08439C0422B6
:1000660075C7AA75C75575AA05A2AF9208C2AF751E
:10007600C7AA75C75543AA40A20892AFE5AA44BFCE
:04008600F460F92207
:10000300A2AF9208C2AF75C7AA75C75553AAF7A284
:100013000892AFA2AF9208C2AF75C7AA75C755536E
:10002300A3FDA20892AF1200667F017E00120DD4D9
:10003300120F93120D4E120F89120F71D2AFC20716
:10004300A2AF9208C2AF75C7AA75C75543AA40A20B
:080053000892AF120B5080E689
:07005B00AE071FEE70FA2250
:0F0F46007FFA12005B7FFA12005B7FFA02005BFA
:100DD400AD07AC06ED1DAE0470011C4E6005120F8C
:100DE4004680F1A2AF9208C2AF75C7AA75C7554332
:070DF400AA40A20892AF2201
:100CDB00EF24FE600C14600E2402700F75E8028086
:100CEB000D75E803800875E804800375E808C2EF0A
:100CFB00D2EE30EFFDAFC37E00E5C2540FFDEFC463
:100D0B00F8540FC868FFEEC454F048FEEF4DFF22B5
:100C8900E4F559F558F557F55675E803C2EFD2EE74
:100C990030EFFDAFC3EFC4540FF558EFC454F0FF64
:100CA900E5C2540F4FFFF559AE58AD57AC56E47B2A
:100CB900097A3DF9F812047A8F598E588D578C5656
:100CC900E4FB7A36F9F81205058F598E588D578C41
:020CD9005622A1
:100D4E00E4F54443B12053B2DF43B14053B2BF4345
:100D5E00B18053B27F75E101F5E275F61C75E808B6
:100D6E00D2EE30EFFDD2EE30EFFDD2EE30EFFD22BF
:100DFB00410001004200040000013E0144000800D4
:100E0B0002D2A841000D324200060000C106C10209
:060E1B00C100C105C10386
:100E9100900001E06003E014F0900004E07002A310
:100EA100E0600E900005E024FFF0900004E034FFC4
:020EB100F0222D
:030F9900AF3E2246
:100EB300E4FFE5437002C322E4FEEEC39543500A08
:100EC30074222EF8E662070E80F0EF7003D38001E0
:020ED300C32238
:100F2F00900002E523F0E53EB4010B753E02900000
:070F3F0006E4F0A304F02218
:100F1600E52324F9600B14600F24077008753E045E
:090F260022753E0522753E0722EA
:0F0F5500E53EB40309AF2390000EEFF0D2062261
:100E2200E523C41313540390000FF0E523543F90BD
:100E32000003F0E53EC39403500B753E0390000699
:060E4200E4F0A304F0221D
:01006200227B
:01008A002253
:100C3400120EB3504F9000047401F0A3742CF0E52D
:100C4400221206160C67010C6A020C6D030C880450
:100C54000C70050C75060C7C510C7F710C828100A4
:100C6400000C85020F2F020F16020F5590000C8006
:100C740003900000E523F022020E2202006202002B
:050C84008A85232322F4
:030063000206EBA7
:1006EB00C0E0C083C082C0D075D0105392FE85E5A8
:1006FB004185E44220020302089F20000302087791
:10070B0020050302084520030302082130040302DD
:10071B000802D3E5429496E541940050030207FD8D
:10072B00E5429458E541940240030207FD0540E57C
:10073B0040C39409502DE53DC313F53DC3E54294E9
:10074B005EE541940150028001C39204A204E4339C
:10075B005401C43333335480FFE53D547F4FF53D93
:10076B000208BBE540B40914D3E542945EE541941D
:10077B00014003D38001C392010208BBC203AF4304
:10078B0074222FF8A63D0543E543D3941B4005C2C5
:10079B00020208BBE543C3953F4008C202120C346A
:1007AB000208BBE543640160030208BBE522C39466
:1007BB0020500302086EE522C39480500FE52224DB
:1007CB00E0FFC4540F2404F53F0208BBE522C39499
:1007DB00E0E522500F2480FF131313541F240AF556
:1007EB003F0208BB2420FF1313543F2416F53F028E
:1007FB0008BBC2020208BBD3E5429496E5419400C4
:10080B00400FE542945EE54194015005C204020895
:10081B00BBC2020208BBD3E542945EE54194015092
:10082B00030208BBE5429458E541940240030208D9
:10083B00BBD203C20475400080760540D3E54294D9
:10084B005EE54194014069E5429458E541940250BC
:10085B005FE54094325011D205D203C204754000BB
:10086B00754300753F038048C2028044D3E5429430
:10087B0096E54194004019E542945EE541940150A0
:10088B000F0540E540C394164026D200C2058020D8
:10089B00C202801CD3E5429496E54194004011E5D9
:1008AB0042945EE54194015007D202C200754001AB
:0908BB00D0D0D082D083D0E0320D
:100ED50043B10253B2FDD28175C80475C929759312
:100EE5000275941075F105759210539B7F439B0411
:010EF50022DA
:100E6E00AD07AF06A2AF9208BF010BC2AF75C7AAFE
:100E7E0075C75543F91075C7AA75C7558DFAA208DF
:030E8E0092AF22FE
:1009DE008F4C8E4B8D4A8C497FC87E207D037C00C8
:1009EE00AB4CAA4BA94AA849D31205A5400A7FC809
:1009FE007E207D037C008008AF4CAE4BAD4AAC49E7
:100A0E009000081205F07F807EB57D017C00AB4C16
:100A1E00AA4BA94AA849C31205A5500A7F807EB5E4
:100A2E007D017C008008AF4CAE4BAD4AAC499000C6
:100A3E00081205F07FC87E207D037C00AB4CAA4BCC
:100A4E00A94AA849C31205A590000D50057432F0AD
:100A5E008003E54DF0900008E0F8A3E0F9A3E0FA7A
:100A6E00A3E0FB7F007E247DF47C00120505AB071E
:100A7E00AA0690000DE0FFC3943250167E00AD031F
:100A8E00AC021203FD7C007D6412040F8E4E8F4F5C
:100A9E008009EAC313F54EEB13F54FEB1B70011AE9
:100AAE008AD18BD9E54EF5D2854FDAD2DF20DEFD25
:060ABE00D2DE53FBF02222
:100BC300C292C291D290D28053B3FB43B40453B3C5
:100BD300FD43B40253B3FE43B40153B1FE43B20128
:100BE30043D60443D60853FCF043FB0F43DE0143D3
:100BF300DE0243DE0443DE0843DF4053DF7F53DF7F
:100C0300F843DF20A2AF9208C2AF75C7AA75C755D4
:100C130043F901A20892AFA2AF9208C2AF75C7AA67
:100C230075C75543F902A20892AF7F067E00020EF4
:010C33006E52
:0B0F7E0043FB0F20DEFDC2DEC2DF22BD
:1008C4008F498B4A8A4B894C120C898E508F51ACBC
:1008D40049EC120336E4FBFAF9784312028FE4FB85
:1008E400FA7980783F120095C004C005C006C0079D
:1008F400AC50AD51E4120331D003D002D001D0008A
:1009040012018612036A8F558E548D538C52AB4D4F
:10091400AA4EA94F74321203EBAE50AF51E4FCFD62
:10092400AB55AA54A953A852C31205A57019900037
:1009340008E0FCA3E0FDA3E0FEA3E0FFAB4AAA4B62
:10094400A94C1205D6C322AE50AF51AB07AA06C3B9
:10095400E5559BFFE5549AFEE5539400FDE552945A
:1009640000FCE47B64FAF9F812047AA804A905AA45
:1009740006AB07900008E0FCA3E0FDA3E0FEA3E0C3
:10098400C39BFFEE9AFEED99FDEC98FCAB4AAA4B93
:10099400A94C1205D6AB4AAA4BA94C1205B67BC882
:1009A4007A2079037800D31205A5502CAB4AAA4BC0
:1009B400A94C1205FC000320C890000DE0FFD3945D
:1009C4000A400AEF14AB4DAA4EA94F8008AB4DAABA
:0A09D4004EA94F740A1203EBD32260
:100E4800900006EEF0A3EFF090000674FFF5F012A4
:100E5800046445F0600F758DFA758BC9C28FD28E08
:060E6800208FE580FB2253
:100DAB00900001E07022900001745AF0E4F54D7F41
:100DBB00A87ED27D02FC1209DE7F467E00120E4811
:090DCB00E53EB40103120F7E2283
:010F9F00222F
:100D7E00300629C20690000EE0FF754D00754E003C
:100D8E00754F487B007A0079441208C4500EAF4765
:0D0D9E00AE46AD45AC4485484D1209DE223D
:100D1B007FC87E207D037C00900008E0F8A3E0F9FB
:100D2B00A3E0FAA3E0FBC31205A5601690000DE04B
:100D3B00640A600E754D0A7FC87E207D037C00120D
:030D4B0009DE229C
:0D0F6400120F7EE4F53E90000174C8F022EB
:030F9C00020F7EC3
:100B5000E53EB408005043900B5EF8282873020B62
:100B600076020B81020B86020B8B020B90020BA606
:100B7000020B95020B95900001E0702A753E0180F2
:100B800025120DAB8020120F9F801B120D7E801648
:100B9000120D1B8011120F9C800C120F7EE4F53E8B
:100BA0009000017464F0900004E07002A3E0701201
:100BB000E53ED39401400B120F7EE4F53E90000118
:030BC00004F0221C
:0D0F7100120BC3120ED5538EEF43891022D0
:10008E000203D6E86480F8E933E83360110460F0C7
:10009E00ED33EC337009E8FCE9FDEAFEEBFF2204D8
:1000AE0060DED3EB9FEA9EE99DE8C2E78CF0C2F7D3
:1000BE0095F0400CE8CCF8E9CDF9EACEFAEBCFFB9F
:1000CE001203A185D0F05804700320D5B3E8047054
:1000DE00075002B2D50203E092D5EC0460F7E4CCEF
:1000EE00C0E0C398F8603B94186008400DD0E0FB68
:1000FE000203B8E4FBFAC9FC8028E830E406E4C940
:10010E00FBE4CAFCE830E305E4C9CACBFCE85407BB
:10011E006010F8C3E913F9EA13FAEB13FBEC13FCC6
:10012E00D8F130F52FC3E49CFCEF9BFFEE9AFEED69
:10013E0099FDD0E0FBEF4E4D4C701222DB03020313
:10014E00DDEC2CFCEF33FFEE33FEED33FDED30E74F
:10015E00EB0203B8EF2BFFEE3AFEED39FDD0E0FBDC
:10016E0050130BBB00030203E0ED13FDEE13FEEF85
:08017E0013FFEC13FC0203B8AF
:10018600EC4D6011E8497017ED33EC3304600DE473
:10019600FCFFFEFD22E933E8330470F80203D612B1
:1001A60003A158046009E4CC2481500628500902B2
:1001B60003E02840030203DDC0E0EB4A7044B98047
:1001C60006D0E0FB0203CCEF4E701CBD8008EBFFAF
:1001D600EAFEE9FD80EBE98DF0A4FEE5F002026F90
:1001E600E9CDF9EAFEEBFFEF89F0A4FCE5F0CE8954
:1001F600F0A42EFFE435F0CD89F0A42DFEE435F011
:100206008067EF4E7005BD80D780C3EF8BF0A4AC3E
:10021600F0EE8BF0A42CFCE435F0F8EF8AF0A42C79
:10022600E5F038FCE433CB8DF0A42CFCE5F03BF88C
:10023600EE8AF0A42CFCE5F038F8E433CF89F0A47C
:100246002CFCE5F038CF3400CE89F0A42FFFE5F082
:100256003EFEE433C98DF0A42EFEE5F039CD8AF0DA
:10026600A42FFFE5F03EFEE43DFD33D0E0FB500752
:100276000BBB000F0203E0EC2CFCEF33FFEE33FE6A
:06028600ED33FD0203B898
:10028C000203E0EC5D046005E8590470030203D638
:10029C001203A1580460F6EC4860F2EC7004FDFE09
:1002AC00FF22C860DB2481C85009C3986002500645
:1002BC000203DD9850CAF582E9294B4A7005AB82DE
:1002CC000203CC75F0007C1A7880C3EF9BEE9AED9C
:1002DC0099400DC3EF9BFFEE9AFEED99FDE842F0BD
:1002EC00DC23ACF0D0E0FFD0E0FED0E0FDAB822010
:1002FC00E7101BEB60BAEC2CFCEF33FFEE33FEED9A
:10030C0033FD0203B8E803F830E705C0F075F000E0
:10031C00EF2FFFEE33FEED33FD40B830E7C280AA7D
:10032C0075F020800E75F010800575F0087D007E4C
:10033C00007F003392D530D503120597EC33401073
:10034C00EF33FFEE33FEED33FDEC33FCD5F0ED2255
:0E035C00E5F0247EA2D513CC92E7CDCEFF2291
:10036A00EDD2E7CD33EC3392D524814006E4FFFE8B
:10037A00FDFC22FCE4CFCECDCC24E0501174FF80EA
:10038A00EDC3CC13CCCD13CDCE13CECF13CF047087
:07039A00F030D5DE020597EB
:1003A100E9D2E7C933E833F892D5EDD2E7CD33ECA2
:0703B10033FC5002B2D5221B
:1003B800EC30E7100FBF000C0EBE00080DBD0004A6
:1003C8000BEB6014A2D5EB13FCED92E7FD2274FF52
:1003D800FCFDFEFF22E480F8A2D574FF13FC7D80AB
:0303E800E480EFBF
:100AD000020003E493A3F8E493A34003F68001F239
:100AE00008DFF48029E493A3F85407240CC8C33327
:100AF000C4540F4420C8834004F456800146F6DFF6
:100B0000E4800B0102040810204080900DFBE47E7D
:100B1000019360BCA3FF543F30E509541FFEE493EA
:100B2000A360010ECF54C025E060A840B8E493A3B1
:100B3000FAE493A3F8E493A3C8C582C8CAC583CADC
:100B4000F0A3C8C582C8CAC583CADFE9DEE780BE94
:010E210000D0
:1003EB00BB010689828A83F0225002F722BBFE01F1
:0203FB00F322EB
:1003FD00EF8DF0A4A8F0CF8CF0A428CE8DF0A42E14
:02040D00FE22CD
:10040F00BC000BBE0029EF8DF084FFADF022E4CCD1
:10041F00F875F008EF2FFFEE33FEEC33FCEE9DEC9A
:10042F00984005FCEE9DFE0FD5F0E9E4CEFD22EDE0
:10043F00F8F5F0EE8420D21CFEADF075F008EF2F2A
:10044F00FFED33FD4007985006D5F0F222C398FD1B
:05045F000FD5F0EA22B8
:10046400A3F8E0C5F025F0F0E5821582700215834B
:06047400E0C838F0E822A8
:10047A00E88FF0A4CC8BF0A42CFCE98EF0A42CFC21
:10048A008AF0EDA42CFCEA8EF0A4CDA8F08BF0A49F
:10049A002DCC3825F0FDE98FF0A42CCD35F0FCEBFE
:1004AA008EF0A4FEA9F0EB8FF0A4CFC5F02ECD39C3
:0F04BA00FEE43CFCEAA42DCE35F0FDE43CFC2230
:1004C90075F008758200EF2FFFEE33FECD33CDCCEA
:1004D90033CCC58233C5829BED9AEC99E58298406D
:1004E9000CF582EE9BFEED9AFDEC99FC0FD5F0D64A
:1004F900E4CEFBE4CDFAE4CCF9A88222B800C1B974
:100509000059BA002DEC8BF084CFCECDFCE5F0CBB1
:10051900F97818EF2FFFEE33FEED33FDEC33FCEBEA
:1005290033FB10D703994004EB99FB0FD8E5E4F9A5
:10053900FA227818EF2FFFEE33FEED33FDEC33FC92
:10054900C933C910D7059BE99A4007EC9BFCE99A86
:10055900F90FD8E0E4C9FAE4CCFB2275F010EF2FCB
:10056900FFEE33FEED33FDCC33CCC833C810D707CB
:100579009BEC9AE899400AED9BFDEC9AFCE899F806
:0E0589000FD5F0DAE4CDFBE4CCFAE4C8F92299
:0E059700C3E49FFFE49EFEE49DFDE49CFC2275
:1005A500EB9FF5F0EA9E42F0E99D42F0E89C45F0AC
:0105B5002223
:1005B600BB010789828A830206485005E9F80206CC
:1005C6003CBBFE05E9F802065489828A830206606E
:1005D600BB010789828A830205F05005E9F8020605
:0A05E60070BBFE05E9F802067C2256
:0C05F000ECF0A3EDF0A3EEF0A3EFF0227E
:1005FC00BB010789828A830206A15005E9F802062D
:0A060C0088BBFE05E9F80206D222C1
:10061600D083D082F8E4937012740193700DA3A373
:1006260093F8740193F5828883E473740293686087
:06063600EFA3A3A380DF87
:0C063C00E6FC08E6FD08E6FE08E6FF22EA
:0C064800E0FCA3E0FDA3E0FEA3E0FF2225
:0C065400E2FC08E2FD08E2FE08E2FF22E2
:10066000E493FC740193FD740293FE740393FF22E0
:0C067000ECF608EDF608EEF608EFF622B6
:0C067C00ECF208EDF208EEF208EFF222BA
:10068800D083D082E493F608740193F60874029339
:09069800F608740393F674047370
:1006A100A8828583F0D083D0821206B81206B812D0
:1006B10006B81206B8E473E493A3C583C5F0C583F5
:1006C100C8C582C8F0A3C583C5F0C583C8C582C8A3
:0106D1002206
:1006D200D083D082E493F208740193F208740293F7
:0906E200F208740393F27404732E
:00000001FF
