:03000000020ACA27
:0C0ACA00787FE4F6D8FD758159020B110D
:06101C00E4F595D2072265
:03008B00020F134E
:100F1300C0E0C0F0C083C082C0D075D008538FEF4B
:100F2300D207120EAED0D0D082D083D0F0D0E03230
:0A100B0075869C758F08439C042233
:1000660075C7AA75C75575AA07A2AF9208C2AF751C
:10007600C7AA75C75543AA40A20892AFE5AA44BFCE
:04008600F460F92207
:100C3F00A2AF9208C2AF75C7AA75C75553AAF7A23C
:100C4F000892AFA2AF9208C2AF75C7AA75C7555326
:100C5F00A3FDA20892AF1200667F017E00120E184C
:100C6F0012101C120D6712100B120FB5120FFED2BD
:100C7F00AFA2AF9208C2AF75C7AA75C75543AA40B6
:100C8F00A20892AF120B563007E7C207120CF28080
:010C9F00E074
:07101500AE071FEE70FA2286
:0F0FC6007FFA1210157FFA1210157FFA0210151C
:100E1800AD07AC06ED1DAE0470011C4E6005120F47
:100E2800C680F1A2AF9208C2AF75C7AA75C755436D
:070E3800AA40A20892AF22BC
:100CA000E4F559F558F557F55675E803C2EFD2EE5D
:100CB00030EFFDAFC3EFC4540FF558EFC454F0FF4D
:100CC000E5C2540F4FFFF559AE58AD57AC56E47B13
:100CD000097A3DF9F812047A8F598E588D578C563F
:100CE000E4FB7A36F9F81205058F598E588D578C2A
:020CF00056228A
:100D6700E4F54443B12053B2DF43B14053B2BF432C
:100D7700B18053B27F75E101F5E275F61C75E8089D
:100D8700D2EE30EFFDD2EE30EFFDD2EE30EFFD22A6
:100DC400410001004200040000013E00440008000C
:100DD40002D2A841000D324200060000C106C10241
:060DE400C100C105C103BE
:100EAE00900001E06003E014F0900004E07002A3F3
:100EBE00E0600E900005E024FFF0900004E034FFA7
:020ECE00F02210
:03102C00AF3E22B2
:100ED000E4FFE5437002C322E4FEEEC39543500AEB
:100EE00074222EF8E662070E80F0EF7003D38001C3
:020EF000C3221B
:100F9E00900002E523F0E53EB4010B753E02900091
:070FAE0006E4F0A304F022A9
:100F6D00E52324F9600B14600F24077008753E0407
:090F7D0022753E0522753E072293
:0F0FD500E53EB40309AF2390000EEFF0D20622E1
:100E3F00E523C41313540390000FF0E523543F90A0
:100E4F000003F0E53EC39403500B753E039000067C
:060E5F00E4F0A304F02200
:01008A002253
:01102F00229E
:10000300120ED0504F9000047401F0A3742CF0E54D
:1000130022120616003601003902003C0300570481
:10002300003F05004406004B51004E710051810012
:10003300000054020F9E020F6D020FD590000C803A
:1000430003900000E523F022020E3F02008A021013
:050053002F852323228C
:030063000206EBA7
:1006EB00C0E0C083C082C0D075D0105392FE85E5A8
:1006FB004185E44220020302089F20000302087791
:10070B0020050302084520030302082130040302DD
:10071B000802D3E5429496E541940050030207FD8D
:10072B00E5429458E541940240030207FD0540E57C
:10073B0040C39409502DE53DC313F53DC3E54294E9
:10074B005EE541940150028001C39204A204E4339C
:10075B005401C43333335480FFE53D547F4FF53D93
:10076B000208BBE540B40914D3E542945EE541941D
:10077B00014003D38001C392010208BBC203AF4304
:10078B0074222FF8A63D0543E543D3941B4005C2C5
:10079B00020208BBE543C3953F4008C202120003A7
:1007AB000208BBE543640160030208BBE522C39466
:1007BB0020500302086EE522C39480500FE52224DB
:1007CB00E0FFC4540F2404F53F0208BBE522C39499
:1007DB00E0E522500F2480FF131313541F240AF556
:1007EB003F0208BB2420FF1313543F2416F53F028E
:1007FB0008BBC2020208BBD3E5429496E5419400C4
:10080B00400FE542945EE54194015005C204020895
:10081B00BBC2020208BBD3E542945EE54194015092
:10082B00030208BBE5429458E541940240030208D9
:10083B00BBD203C20475400080760540D3E54294D9
:10084B005EE54194014069E5429458E541940250BC
:10085B005FE54094325011D205D203C204754000BB
:10086B00754300753F038048C2028044D3E5429430
:10087B0096E54194004019E542945EE541940150A0
:10088B000F0540E540C394164026D200C2058020D8
:10089B00C202801CD3E5429496E54194004011E5D9
:1008AB0042945EE54194015007D202C200754001AB
:0908BB00D0D0D082D083D0E0320D
:100EF20043B10253B2FDD28175C80475C9297593F5
:100F02000275941075F105759210539B7F439B04F3
:010F120022BC
:100E8B00AD07AF06A2AF9208BF010BC2AF75C7AAE1
:100E9B0075C75543F91075C7AA75C7558DFAA208C2
:030EAB0092AF22E1
:1009DE008F4C8E4B8D4A8C497FC87E207D037C00C8
:1009EE00AB4CAA4BA94AA849D31205A5400A7FC809
:1009FE007E207D037C008008AF4CAE4BAD4AAC49E7
:100A0E009000081205F07F807EB57D017C00AB4C16
:100A1E00AA4BA94AA849C31205A5500A7F807EB5E4
:100A2E007D017C008008AF4CAE4BAD4AAC499000C6
:100A3E00081205F07FC87E207D037C00AB4CAA4BCC
:100A4E00A94AA849C31205A590000D50057432F0AD
:100A5E008003E54DF0900008E0F8A3E0F9A3E0FA7A
:100A6E00A3E0FB7F007E247DF47C00120505AB071E
:100A7E00AA0690000DE0FFC3943250167E00AD031F
:100A8E00AC021203FD7C007D6412040F8E4E8F4F5C
:100A9E008009EAC313F54EEB13F54FEB1B70011AE9
:100AAE008AD18BD9E54EFFF5D2AE4F8EDA8FD48E2A
:0C0ABE00DCD2DF20DEFDD2DE53FBF02294
:100BCE00C292C291D290D28053B1FE43B20153B3BE
:100BDE00FE43B40153B3FD43B40253B3FB43B40419
:100BEE0043D60443D60853FCF043FB0F43DE0143C8
:100BFE00DE0243DE0443DE0843DF4053DF7F53DF74
:100C0E00F843DF20A2AF9208C2AF75C7AA75C755C9
:100C1E0043F901A20892AFA2AF9208C2AF75C7AA5C
:100C2E0075C75543F902A20892AF7F067E00020EE9
:010C3E008B2A
:0B00580043FB0F20DEFDC2DEC2DF22F2
:1008C4008F498B4A8A4B894C120CA08E508F51ACA5
:1008D40049EC120336E4FBFAF9784312028FE4FB85
:1008E400FA7980783F120095C004C005C006C0079D
:1008F400AC50AD51E4120331D003D002D001D0008A
:1009040012018612036A8F558E548D538C52AB4D4F
:10091400AA4EA94F74321203EBAE50AF51E4FCFD62
:10092400AB55AA54A953A852C31205A57019900037
:1009340008E0FCA3E0FDA3E0FEA3E0FFAB4AAA4B62
:10094400A94C1205D6C322AE50AF51AB07AA06C3B9
:10095400E5559BFFE5549AFEE5539400FDE552945A
:1009640000FCE47B64FAF9F812047AA804A905AA45
:1009740006AB07900008E0FCA3E0FDA3E0FEA3E0C3
:10098400C39BFFEE9AFEED99FDEC98FCAB4AAA4B93
:10099400A94C1205D6AB4AAA4BA94C1205B67BC882
:1009A4007A2079037800D31205A5502CAB4AAA4BC0
:1009B400A94C1205FC000320C890000DE0FFD3945D
:1009C4000A400AEF14AB4DAA4EA94F8008AB4DAABA
:0A09D4004EA94F740A1203EBD32260
:100E6500900006EEF0A3EFF090000674FFF5F01287
:100E7500046445F0600F758DFA758BC9C28FD28EEB
:060E8500208FE580FB2236
:100DEF00900001E07022900001745AF0E4F54D7FFD
:100DFF00A87ED27D02FC1209DE7F467E00120E65B0
:090E0F00E53EB401031200582273
:01103000229D
:100D9700300629C20690000EE0FF754D00754E0023
:100DA700754F487B007A0079441208C4500EAF474C
:0D0DB700AE46AD45AC4485484D1209DE2224
:100D34007FC87E207D037C00900008E0F8A3E0F9E2
:100D4400A3E0FAA3E0FBC31205A5601690000DE032
:100D5400640A600E754D0A7FC87E207D037C0012F4
:030D640009DE2283
:0D0FE400120058E4F53E90000174C8F022A0
:0D0FF100120058E4F53E90000174C8F02293
:100B5600E53EB408005048900B64F8282873020B51
:100B66007C020B87020B8C020B91020B96020B9BED
:100B7600020BA0020BA0900001E0702F753E0180D1
:100B86002A120DEF80251210308020120D97801B3F
:100B9600120D348016120FE48011120FF1800C1220
:100BA6000058E4F53E9000017464F0900004E07093
:100BB60002A3E07012E53ED39401400B120058E404
:080BC600F53E90000104F0224D
:0D0FFE00120BCE120EF2538EEF438910221B
:040DEA0041001000B4
:05102200D293D29422DC
:100F3300900010E07016D294209309D29390001081
:0D0F430074BEF022C293900010740AF022D8
:100F5000900010E07016D293209409D29490001063
:0D0F6000745AF022C294900010740AF0221E
:05102700D293C29422E7
:100F8600900010E07011D294209304D2938002C294
:080F9600939000107419F02281
:100CF200900010E0600214F012102CEFB4080050C3
:100D02002D900D0AF8282873020D22020D25020DDE
:100D120025020D28020D2B020D33020D2E020D2E7F
:100D2200021022020F33020F500210278000120F0E
:020D3200862217
:100FB500C293C29453B3F743B40853B3EF43B41089
:010FC5002209
:10008E000203D6E86480F8E933E83360110460F0C7
:10009E00ED33EC337009E8FCE9FDEAFEEBFF2204D8
:1000AE0060DED3EB9FEA9EE99DE8C2E78CF0C2F7D3
:1000BE0095F0400CE8CCF8E9CDF9EACEFAEBCFFB9F
:1000CE001203A185D0F05804700320D5B3E8047054
:1000DE00075002B2D50203E092D5EC0460F7E4CCEF
:1000EE00C0E0C398F8603B94186008400DD0E0FB68
:1000FE000203B8E4FBFAC9FC8028E830E406E4C940
:10010E00FBE4CAFCE830E305E4C9CACBFCE85407BB
:10011E006010F8C3E913F9EA13FAEB13FBEC13FCC6
:10012E00D8F130F52FC3E49CFCEF9BFFEE9AFEED69
:10013E0099FDD0E0FBEF4E4D4C701222DB03020313
:10014E00DDEC2CFCEF33FFEE33FEED33FDED30E74F
:10015E00EB0203B8EF2BFFEE3AFEED39FDD0E0FBDC
:10016E0050130BBB00030203E0ED13FDEE13FEEF85
:08017E0013FFEC13FC0203B8AF
:10018600EC4D6011E8497017ED33EC3304600DE473
:10019600FCFFFEFD22E933E8330470F80203D612B1
:1001A60003A158046009E4CC2481500628500902B2
:1001B60003E02840030203DDC0E0EB4A7044B98047
:1001C60006D0E0FB0203CCEF4E701CBD8008EBFFAF
:1001D600EAFEE9FD80EBE98DF0A4FEE5F002026F90
:1001E600E9CDF9EAFEEBFFEF89F0A4FCE5F0CE8954
:1001F600F0A42EFFE435F0CD89F0A42DFEE435F011
:100206008067EF4E7005BD80D780C3EF8BF0A4AC3E
:10021600F0EE8BF0A42CFCE435F0F8EF8AF0A42C79
:10022600E5F038FCE433CB8DF0A42CFCE5F03BF88C
:10023600EE8AF0A42CFCE5F038F8E433CF89F0A47C
:100246002CFCE5F038CF3400CE89F0A42FFFE5F082
:100256003EFEE433C98DF0A42EFEE5F039CD8AF0DA
:10026600A42FFFE5F03EFEE43DFD33D0E0FB500752
:100276000BBB000F0203E0EC2CFCEF33FFEE33FE6A
:06028600ED33FD0203B898
:10028C000203E0EC5D046005E8590470030203D638
:10029C001203A1580460F6EC4860F2EC7004FDFE09
:1002AC00FF22C860DB2481C85009C3986002500645
:1002BC000203DD9850CAF582E9294B4A7005AB82DE
:1002CC000203CC75F0007C1A7880C3EF9BEE9AED9C
:1002DC0099400DC3EF9BFFEE9AFEED99FDE842F0BD
:1002EC00DC23ACF0D0E0FFD0E0FED0E0FDAB822010
:1002FC00E7101BEB60BAEC2CFCEF33FFEE33FEED9A
:10030C0033FD0203B8E803F830E705C0F075F000E0
:10031C00EF2FFFEE33FEED33FD40B830E7C280AA7D
:10032C0075F020800E75F010800575F0087D007E4C
:10033C00007F003392D530D503120597EC33401073
:10034C00EF33FFEE33FEED33FDEC33FCD5F0ED2255
:0E035C00E5F0247EA2D513CC92E7CDCEFF2291
:10036A00EDD2E7CD33EC3392D524814006E4FFFE8B
:10037A00FDFC22FCE4CFCECDCC24E0501174FF80EA
:10038A00EDC3CC13CCCD13CDCE13CECF13CF047087
:07039A00F030D5DE020597EB
:1003A100E9D2E7C933E833F892D5EDD2E7CD33ECA2
:0703B10033FC5002B2D5221B
:1003B800EC30E7100FBF000C0EBE00080DBD0004A6
:1003C8000BEB6014A2D5EB13FCED92E7FD2274FF52
:1003D800FCFDFEFF22E480F8A2D574FF13FC7D80AB
:0303E800E480EFBF
:100AD600020C3FE493A3F8E493A34003F68001F2EB
:100AE60008DFF48029E493A3F85407240CC8C33321
:100AF600C4540F4420C8834004F456800146F6DFF0
:100B0600E4800B0102040810204080900DC4E47EAE
:100B1600019360BCA3FF543F30E509541FFEE493E4
:100B2600A360010ECF54C025E060A840B8E493A3AB
:100B3600FAE493A3F8E493A3C8C582C8CAC583CAD6
:100B4600F0A3C8C582C8CAC583CADFE9DEE780BE8E
:010DEE000004
:1003EB00BB010689828A83F0225002F722BBFE01F1
:0203FB00F322EB
:1003FD00EF8DF0A4A8F0CF8CF0A428CE8DF0A42E14
:02040D00FE22CD
:10040F00BC000BBE0029EF8DF084FFADF022E4CCD1
:10041F00F875F008EF2FFFEE33FEEC33FCEE9DEC9A
:10042F00984005FCEE9DFE0FD5F0E9E4CEFD22EDE0
:10043F00F8F5F0EE8420D21CFEADF075F008EF2F2A
:10044F00FFED33FD4007985006D5F0F222C398FD1B
:05045F000FD5F0EA22B8
:10046400A3F8E0C5F025F0F0E5821582700215834B
:06047400E0C838F0E822A8
:10047A00E88FF0A4CC8BF0A42CFCE98EF0A42CFC21
:10048A008AF0EDA42CFCEA8EF0A4CDA8F08BF0A49F
:10049A002DCC3825F0FDE98FF0A42CCD35F0FCEBFE
:1004AA008EF0A4FEA9F0EB8FF0A4CFC5F02ECD39C3
:0F04BA00FEE43CFCEAA42DCE35F0FDE43CFC2230
:1004C90075F008758200EF2FFFEE33FECD33CDCCEA
:1004D90033CCC58233C5829BED9AEC99E58298406D
:1004E9000CF582EE9BFEED9AFDEC99FC0FD5F0D64A
:1004F900E4CEFBE4CDFAE4CCF9A88222B800C1B974
:100509000059BA002DEC8BF084CFCECDFCE5F0CBB1
:10051900F97818EF2FFFEE33FEED33FDEC33FCEBEA
:1005290033FB10D703994004EB99FB0FD8E5E4F9A5
:10053900FA227818EF2FFFEE33FEED33FDEC33FC92
:10054900C933C910D7059BE99A4007EC9BFCE99A86
:10055900F90FD8E0E4C9FAE4CCFB2275F010EF2FCB
:10056900FFEE33FEED33FDCC33CCC833C810D707CB
:100579009BEC9AE899400AED9BFDEC9AFCE899F806
:0E0589000FD5F0DAE4CDFBE4CCFAE4C8F92299
:0E059700C3E49FFFE49EFEE49DFDE49CFC2275
:1005A500EB9FF5F0EA9E42F0E99D42F0E89C45F0AC
:0105B5002223
:1005B600BB010789828A830206485005E9F80206CC
:1005C6003CBBFE05E9F802065489828A830206606E
:1005D600BB010789828A830205F05005E9F8020605
:0A05E60070BBFE05E9F802067C2256
:0C05F000ECF0A3EDF0A3EEF0A3EFF0227E
:1005FC00BB010789828A830206A15005E9F802062D
:0A060C0088BBFE05E9F80206D222C1
:10061600D083D082F8E4937012740193700DA3A373
:1006260093F8740193F5828883E473740293686087
:06063600EFA3A3A380DF87
:0C063C00E6FC08E6FD08E6FE08E6FF22EA
:0C064800E0FCA3E0FDA3E0FEA3E0FF2225
:0C065400E2FC08E2FD08E2FE08E2FF22E2
:10066000E493FC740193FD740293FE740393FF22E0
:0C067000ECF608EDF608EEF608EFF622B6
:0C067C00ECF208EDF208EEF208EFF222BA
:10068800D083D082E493F608740193F60874029339
:09069800F608740393F674047370
:1006A100A8828583F0D083D0821206B81206B812D0
:1006B10006B81206B8E473E493A3C583C5F0C583F5
:1006C100C8C582C8F0A3C583C5F0C583C8C582C8A3
:0106D1002206
:1006D200D083D082E493F208740193F208740293F7
:0906E200F208740393F27404732E
:00000001FF
